:0400B9007FC87E007E
:1000BD00E4FDFCC3ED9FEE6480F8EC648098501570
:1000CD00E4FBFA0BBB00010ABA02F8BB58F50DBDF3
:0500DD0000010C80DEB3
:0100E20022FB
:0D00E3007580FF7590FF75A0FF75B0FF22BE
:100003001200E3E4F9E9C39408748094805014A8BF
:10001300017401088002C333D8FCF4F5801200B9DF
:100023000980E2E4F5807FC8FE1200BD7580FFE41D
:10003300F9E9C39408748094805014A801740108EA
:100043008002C333D8FCF4F5901200B90980E2E4CE
:10005300F5907FC8FE1200BD7590FFE4F9E9C394E3
:1000630008748094805014A8017401088002C3337B
:10007300D8FCF4F5A01200B90980E2E4F5A07FC82A
:10008300FE1200BD75A0FFE4F9E9C39408748094DF
:10009300805014A8017401088002C333D8FCF4F51E
:1000A300B01200B90980E2E4F5B07FC8FE1200BDCA
:0600B30075B0FF0200061B
:030000000200F00B
:0C00F000787FE4F6D8FD7581070200035C
:00000001FF
