:10092500E4F5907F0AFE1209357590FF7F0A7E0077
:10093500D3EF9400EE6480948040147D787C00EDC4
:0F0945001D70011CED4C70F7EF1F70E41E80E178
:010954002280
:0607EB008B358A368937C8
:1007F100E4F53AF53BF538F539E53925E0FFE5381B
:1008010033AB35AA36A9378F82F58312045125E01F
:10081100FDE5F033FC120100C004C005C006C007AD
:10082100C374079539FDE49538FC1201008F438E9E
:10083100428D418C40D007D006D005D0041205EC82
:10084100C004C005C006C007AC3AAD3BEC120100C4
:10085100D003D002D001D00012000A1201398E3A21
:100861008F3B0539E53970020538D39406E53864C4
:100871008094804084AB35AA36A93790000E1204CB
:0908810051253BFFE53A35F0FE7C
:01088A00224B
:10070300E4FFFEEF25E02425F876000876010FBF0D
:1007130000010EEF64084E70EA120925120925E460
:10072300FBFAAF03A8077401088002C333D8FCF4B3
:10073300F5907F327E001209350BBB00010AEB6492
:10074300084A70DE7A007B07AF03A80774010880AC
:1007530002C333D8FCF4F5907F327E00120935EBE7
:100763001B70011ABAFFE1BBFFDE7521007522077A
:10077300C3E5216480948040A0E4F523F524C3E518
:10078300249522E5216480F8E5236480985044E5AC
:100793002425E02425F8E4F608F6FB7A00792512EF
:1007A30007EB8F907F647E00120935E52425E02452
:1007B30025F876000876017B007A0079251207EB8D
:1007C3008F907F647E001209350524E52470AF0500
:1007D3002380ABE52225E02425F8E4F608F6E5229C
:0807E3001522708C152180889D
:100003000201A5E86480F8E933E83360110460F085
:10001300ED33EC337009E8FCE9FDEAFEEBFF220463
:1000230060DED3EB9FEA9EE99DE8C2E78CF0C2F75E
:1000330095F0400CE8CCF8E9CDF9EACEFAEBCFFB2A
:1000430012017085D0F05804700320D5B3E8047012
:10005300075002B2D50201AF92D5EC0460F7E4CCAD
:10006300C0E0C398F8603B94186008400DD0E0FBF3
:10007300020187E4FBFAC9FC8028E830E406E4C9FE
:10008300FBE4CAFCE830E305E4C9CACBFCE8540747
:100093006010F8C3E913F9EA13FAEB13FBEC13FC52
:1000A300D8F130F52FC3E49CFCEF9BFFEE9AFEEDF5
:1000B30099FDD0E0FBEF4E4D4C701222DB030201A1
:1000C300ACEC2CFCEF33FFEE33FEED33FDED30E70C
:1000D300EB020187EF2BFFEE3AFEED39FDD0E0FB9B
:1000E30050130BBB00030201AFED13FDEE13FEEF44
:0800F30013FFEC13FC0201876E
:1000FB0075F020800E75F010800575F0087D007E80
:10010B00007F003392D530D503120489EC334010B5
:10011B00EF33FFEE33FEED33FDEC33FCD5F0ED2288
:0E012B00E5F0247EA2D513CC92E7CDCEFF22C4
:10013900EDD2E7CD33EC3392D524814006E4FFFEBE
:10014900FDFC22FCE4CFCECDCC24E0501174FF801D
:10015900EDC3CC13CCCD13CDCE13CECF13CF0470BA
:07016900F030D5DE0204892D
:1005EC008F3F8E3E8D3D8C3CE4FFFE7D807C3FAB8F
:1005FC003FAA3EA93DA83C1202DA7009AF3FAE3EBD
:10060C00AD3DAC3C22AF3FAE3EAD3DAC3C1201BA71
:10061C00FBAF43AE42AD41AC401201BAFFBF010883
:10062C00E4FFFE7D807C3F22EF64046022EB6404D7
:10063C00601DBB0127E4FFFEFDFCAB43AA42A941B0
:10064C00A8401202DA60084006E4FFFEFDFC2274AA
:10065C00FFF543F542F541F5400206FAE4F544F5A1
:10066C0045FFFEFDFCAB3FAA3EA93DA83C1202DAB9
:10067C00504BAF43AE42AD41AC401201398E448F6A
:10068C0045AC44AD45EC120100C8ECC8C9EDC9CA73
:10069C00EECACBEFCBAF43AE42AD41AC401200063D
:1006AC00E4FBFAF9F81202DA70A5AF3FAE3EAD3DAD
:1006BC00AC3C1203538F3F8E3E8D3D8C3CAF3FAE16
:1006CC003EAD3DAC3C1204EBAB43AA42A941A84061
:1006DC001201D41208C38F438E428D418C40E545E4
:1006EC0030E00B1203538F438E428D418C40AF434D
:0706FC00AE42AD41AC40220B
:10017000E9D2E7C933E833F892D5EDD2E7CD33ECD5
:0701800033FC5002B2D5224E
:10018700EC30E7100FBF000C0EBE00080DBD0004D9
:100197000BEB6014A2D5EB13FCED92E7FD2274FF85
:1001A700FCFDFEFF22E480F8A2D574FF13FC7D80DE
:0301B700E480EFF2
:1001BA00ED33EC33601004700FED547F7005740258
:0A01CA0092E0227404220422E422D1
:1001D400EC4D6011E8497017ED33EC3304600DE425
:1001E400FCFFFEFD22E933E8330470F80201A51296
:1001F400017058046009E4CC248150062850090297
:1002040001AF2840030201ACC0E0EB4A7044B9805E
:1002140006D0E0FB02019BEF4E701CBD8008EBFF93
:10022400EAFEE9FD80EBE98DF0A4FEE5F00202BDF3
:10023400E9CDF9EAFEEBFFEF89F0A4FCE5F0CE8905
:10024400F0A42EFFE435F0CD89F0A42DFEE435F0C2
:100254008067EF4E7005BD80D780C3EF8BF0A4ACF0
:10026400F0EE8BF0A42CFCE435F0F8EF8AF0A42C2B
:10027400E5F038FCE433CB8DF0A42CFCE5F03BF83E
:10028400EE8AF0A42CFCE5F038F8E433CF89F0A42E
:100294002CFCE5F038CF3400CE89F0A42FFFE5F034
:1002A4003EFEE433C98DF0A42EFEE5F039CD8AF08C
:1002B400A42FFFE5F03EFEE43DFD33D0E0FB500704
:1002C4000BBB000F0201AFEC2CFCEF33FFEE33FE4F
:0602D400ED33FD0201877D
:1002DA0074F8CC6480CCC86480C8F58204604FC3CB
:1002EA00EB9FF5F0EA9E42F0E99D42F0E89C45F06A
:1002FA00603C501DE5825FFFE582D313CB5BCBF4F4
:10030A002B5582FB50280ABA002409B9002008801C
:10031A001DE5825BFBE582D313CF5FCFF4C3132FB6
:10032A005582FF50090EBE00050DBD00010CC3EB3E
:10033A009FF5F0EA9E42F0E99D42F0E89C45F060A4
:09034A0007CC4820E701B3EC22C6
:10035300ED33EC33600A047003BD8004ECB2E7FCB8
:010363002277
:10088B0033DA929E35B16011377FE5FE39218489C9
:10089B003AAEC3FF3C1D955B3D6358473E75FDF07B
:1008AB003F3172183F800000C2D50201AF0201A593
:1008BB00BD80FA50F30201ACED33EC330460F17BF5
:1008CB003B7AAA79B8783F1201D4ED33EC3392D549
:1008DB00247B5011A2D570DB500BED4480240450C7
:1008EB0004A2D580CEEFFBEEFAEDF9ECF81201394C
:1008FB00EFF582F404FC12010512000AC082900885
:10090B008B7409120413ED33CC33D0F092D525F050
:0A091B00A2D57001C313CC13FD2216
:1004B7003E9248DA3ECCCCCD3F2AAAAB40000000A2
:1004C7003F8000003F9837F03FB504F33FD744FC27
:1004D7003E3172173EB172173F0515913EDE5BD96B
:1004E700D2008002C200EDD2E7F8CD33EC330470BE
:1004F7000BBD800592D50201AF0201A540FBD314C5
:1005070060F2F5F07C3FEE7A00C39496C8948B4076
:10051700230AC89469C8941A401A0AC89468C894E8
:100527001F40110AC8945AC89425400805F07A005C
:10053700CDC2E7CDC0F08C468D478E488F49EA2360
:1005470023C0E024C7F582E43404F5831204A7121C
:10055700000AECC0E0EDC0E0EEC0E0EFC0E012043E
:1005670097A846A947AA48AB49120006D0E0FBD096
:10057700E0FAD0E0F9D0E0B2E7F81203678C468DD5
:10058700478E488F499004B77403120404A846A9FC
:1005970047AA48AB491201D4D0E0600F24D3F582B3
:1005A700E43404F5831204A712000A8C468D478EA3
:1005B700488F49D0E0C3947FFDE49400FC1201000A
:1005C7007B187A727931783F1201D4A846A947AAD5
:1005D70048AB4912000A30000B7BD97A5B79DE7889
:0505E7003E1201D422C8
:100364000201AFEC5D046005E8590470030201A5C5
:10037400120170580460F6EC4860F2EC7004FDFE63
:10038400FF22C860DB2481C85009C398600250066C
:100394000201AC9850CAF582E9294B4A7005AB8238
:1003A40002019B75F0007C1A7880C3EF9BEE9AEDF6
:1003B40099400DC3EF9BFFEE9AFEED99FDE842F0E4
:1003C400DC23ACF0D0E0FFD0E0FED0E0FDAB822037
:1003D400E7101BEB60BAEC2CFCEF33FFEE33FEEDC1
:1003E40033FD020187E803F830E705C0F075F0003B
:1003F400EF2FFFEE33FEED33FD40B830E7C280AAA5
:10040400C0E0EFFBEEFAEDF9ECF81201D4D0E0F520
:10041400F0EFFBEEFAEDF9ECF8120497A3A3A3A313
:10042400E8C0E0E9C0E0EAC0E0EBC0E0C0F01201DF
:10043400D41204A7A3A3A3A312000AD0F0D0E0FB14
:0D044400D0E0FAD0E0F9D0E0F8D5F0D422F5
:030000000209559D
:0C095500787FE4F6D8FD758149020703A5
:10045100BB0110E58229F582E5833AF583E0F5F0E9
:10046100A3E0225009E92582F886F008E622BBFEC6
:100471000AE92582F8E2F5F008E222E5832AF5830C
:08048100E993F5F0A3E99322D1
:0E048900C3E49FFFE49EFEE49DFDE49CFC2284
:10049700E493FC740193FD740293FE740393FF22AB
:1004A700E493F8740193F9740293FA740393FB22AB
:00000001FF
