:05022C00F9A4B099F8EF
:04022100E493F580ED
:070225007F027E000201EFE1
:0401EB007F197E00FA
:1001EF00E4FDFCC3ED9FEE6480F8EC64809850153D
:1001FF00E4FBFA0BBB00010ABA04F8BBB0F50DBD66
:05020F0000010C80DE7F
:0102140022C7
:04017A008E088F0953
:10017E0075900F900000E50925E0FFE50833FEEFCE
:10018E0024FFFFEE34FFFEC3E5829FEE6480F8E5A8
:10019E0083648098500D7F327E001201EF6390FFD2
:0A01AE00A380D37F327E000201EF30
:04013B008E088F0992
:10013F00E4F590F582F583E50925E0FFE50833FE48
:10014F00EF24FFFFEE34FFFEC3E5829FEE6480F8DD
:10015F00E583648098500D7F327E001201EF63902B
:0B016F00FFA380D37F327E000201EF6F
:0400B7008E0C8F0D0F
:1000BB00E4F50EF50FC3E50F950DE50C6480F8E53F
:1000CB000E64809850277590FE9000001201EBE5AE
:1000DB009025E04401F590A3E5826407458370EC1D
:0D00EB001201EB050FE50F70CC050E80C86B
:0100F80022E5
:0400F9008E0C8F0DCD
:1000FD00E4F50EF50FC3E50F950DE50C6480F8E5FD
:10010D000E648098502775907F9000001201EBE5EA
:10011D0090C3134480F590A3E5826407458370EC8A
:0D012D001201EB050FE50F70CC050E80C828
:01013A0022A2
:0401B8008E088F0915
:1001BC00E4F50AF50BC3E50B9509E5086480F8E551
:1001CC000A64809850187F017E001200B77F017E70
:0E01DC00001200F9050BE50B70DB050A80D759
:0101EA0022F2
:100003007590FF75B0FFE5B0F424F8603124F86013
:100013004D24E06074242C70EA120225AFB0EFF493
:10002300FFE4F4FEEF64044E700890022C93F58015
:1000330080EA1202257F037E0012017A803E1202BB
:1000430025AFB0EFF4FFE4F4FEEF64084E60F290E6
:10005300022D1202217F037E001200B7801E1202BE
:1000630025AFB0EFF4FFE4F4FEEF64104E60F290BE
:10007300022E1202217F037E001200F97F037E000D
:1000830012013B7580FF020006120225AFB0EFF4A8
:10009300FFE4F4FEEF64304E60F29002301202216E
:1000A3007F037E001201B87F037E0012013B75803F
:0400B300FF02000642
:03000000020215E4
:0C021500787FE4F6D8FD75810F0200032D
:00000001FF
