:100103003F065B4F666D7D077F6F8687010204089C
:0401130010204080F8
:0A01170008080200000101020301C4
:1000E900EF1FAA0670011E4A600FE4FDEDC3947864
:0900F9007480948050EA0D80F33C
:0101020022DA
:10008F00E4F510F511C374079511FFE49510FE7494
:10009F000F2FF58274013EF583E493F5A0740825C4
:1000AF0011F8E690010393F4FFF590E5116405450F
:1000BF00106008E511640345107005EF2480F5907A
:1000CF007F047E001200E90511E51170020510C3CF
:0A00DF009408E510940040AD80A6DF
:03000000020003F8
:0C000300787FE4F6D8FD75811102004AF8
:10000F0002008FE493A3F8E493A34003F68001F278
:10001F0008DFF48029E493A3F85407240CC8C333F2
:10002F00C4540F4420C8834004F456800146F6DFC1
:10003F00E4800B0102040810204080900117E47E39
:10004F00019360BCA3FF543F30E509541FFEE493B6
:10005F00A360010ECF54C025E060A840B8E493A37D
:10006F00FAE493A3F8E493A3C8C582C8CAC583CAA8
:10007F00F0A3C8C582C8CAC583CADFE9DEE780BE60
:0101210000DD
:00000001FF
