:1001C500C0F9A4B0999282F88098A083A7A1848EE3
:0101D500BF6A
:0C01D600040CBFBFBFBF0408EFDFBF7FF9
:0501E30012000380FB87
:10019F00E4FDFCC3ED9FEE6480F8EC64809850158D
:1001AF00E4FBFA0BBB00010AEB64784A70F50DBD56
:0501BF0000010C80DED0
:0101C4002218
:10000300E4F9E9C3940474809480400302011274F8
:100013000829F8E6F5A0740C29F8E6F580E5A0F4C4
:10002300540FFFFD7C0070030200FC64017004F5B3
:1000330010801FED64024C70057510018014ED648F
:10004300044C70057510028009ED64084C7003754B
:100053001003E925E025E02510FEC3940A7480947B
:10006300805010850E0F850D0E850C0DEE9001C589
:1000730093F50CEE24F5602114602C14603D14609C
:100083005614605B24057071750CBF750DBF750E3A
:10009300BF750FBF75A00F8060850D0C850E0D8594
:0700A3000F0E750FBF805224
:1000AA00850C11850F0C85110F850D12850E0D8596
:0400BA00120E803E64
:1000BE00E4F511F512740C2512F8A60F0512E512CF
:0C00CE00700205116404451170EB8022E3
:0800DA00850F0C850E0D801A44
:1000E200E4F511F512740C2512F8E4F60512E51286
:0A00F200700205116404451170EB63
:1000FC00EF6008E5A0F4540FFF80F57F047E00123A
:06010C00019F090200053D
:0101120022CA
:03000000020113E7
:0C011300787FE4F6D8FD75811202015AD5
:10011F000201E3E493A3F8E493A34003F68001F212
:10012F0008DFF48029E493A3F85407240CC8C333E1
:10013F00C4540F4420C8834004F456800146F6DFB0
:10014F00E4800B01020408102040809001D6E47E69
:10015F00019360BCA3FF543F30E509541FFEE493A5
:10016F00A360010ECF54C025E060A840B8E493A36C
:10017F00FAE493A3F8E493A3C8C582C8CAC583CA97
:10018F00F0A3C8C582C8CAC583CADFE9DEE780BE4F
:0101E200001C
:00000001FF
